:100000008031182800002030850005308400000869
:10001000031917280A30F800F701F70B0D28F80B21
:100020000C285F30F700F70B1328800B0A28080014
:10003000F0302100990023008C018E0120009F01E7
:10004000FA30A500032021008E1122008E1121001C
:100050000E1222000E1221008E162000A201A10114
:10006000A401A30121000C1520000C1D352822003D
:100070000E1620000C193A2822000E128E152100AF
:100080000C1122000C112730F700F70B45284828E7
:1000900020002308903C031D5028240B502855288D
:1000A000A30A0319A40A8E1E492822000C15200059
:1000B0002308903C031D6228240B62280130A50010
:1000C00003206F282108203C031D6A2822084E3C8B
:1000D00003196F28A10A0319A20A8E1A62282200A6
:0A00E0000C118E1121002D28630081
:020000040001F9
:04000E004439FF1E54
:00000001FF
;PIC16F1704
;CRC=79CA  CREATED="20-May-16 16:02"
